:020000040800F2
:10000000D80B00203502000899300008EF2B0008BB
:100010008F2E0008372900080F4900080000000053
:10002000000000000000000000000000053A000889
:100030003B29000800000000ED380008A93B00083B
:100040004F0200084F0200084F0200084F0200084C
:100050004F0200084F0200084F0200084F0200083C
:100060004F0200084F0200084F0200084F0200082C
:100070004F0200084F0200084F0200084F0200081C
:100080004F0200084F0200084F0200084F0200080C
:100090004F0200084F0200084F0200084F020008FC
:1000A0004F0200084D3E00084F0200084F020008B2
:1000B0004F0200084F0200084F0200084F020008DC
:1000C0004F0200084F0200084F0200084F020008CC
:1000D0004F02000871460008A94600084F020008B8
:1000E0004F0200084F0200084F02000800F002F81B
:1000F00000F090F80AA090E8000C82448344AAF132
:100100000107DA4501D100F085F8AFF2090EBAE82F
:100110000F0013F0010F18BFFB1A43F0010318473B
:100120003C7000005C700000103A24BF78C878C1B1
:10013000FAD8520724BF30C830C144BF04680C60ED
:10014000704700000023002400250026103A28BF35
:1001500078C1FBD8520728BF30C148BF0B60704739
:100160006E2900F09F81702900F0E182662906F077
:10017000FB81652906F0F881672906F0F581612980
:1001800006F0F48103681B0A28BF41F08001692949
:1001900000F04C81642900F04981752900F0468106
:1001A0006F2900F06E82782900F0AD82E92900F015
:1001B0000982E42900F00682F52900F00382EF2984
:1001C00000F06B82F82900F0AC820368DB0928BFDD
:1001D00041F08001632901F06F80732901F0748080
:1001E000E32901F07F80F32901F08480002070472B
:1001F0001FB501F055F904000020002105F00AFAAE
:10020000401C60600020002105F0EEF9E0601FBD99
:1002100010B510BD01F01FF91146FFF7E9FF04F01A
:10022000B9FE01F07DFC03B4FFF7F2FF03BC01F05F
:10023000ABFE00000948804709480047FEE7FEE79B
:10024000FEE7FEE7FEE7FEE7FEE7FEE7FEE7FEE786
:1002500004480549054A064B70470000AD3B0008BD
:10026000ED000008D8050020D80B0020D80700209A
:10027000D80700201CB50C46064B7B44694600900D
:10028000204600F028F904460020694600F036F9BF
:1002900020461CBD7F02000070B5064600F054F8F1
:1002A0000468054630460A22002100F061FB2C60FC
:1002B00070BD0000014A00F093BB00001001002057
:1002C0004FF0013C50F8042B51F8043B9A4221D1E5
:1002D000A2EB0C03934313EACC1317D150F8042B71
:1002E00051F8043B9A4215D1A2EB0C03934313EA55
:1002F000CC130BD150F8042B51F8043B9A4209D18E
:10030000A2EB0C03934313EACC13DBD04FF00000B5
:10031000704700BFD01A01BAB1FA81F101F018019B
:1003200022FA01F0CB40C1F12001DBB2C0B2C01A09
:100330002CFA01F3D11A914311EAC311E6D17047A7
:1003400070477047704700000048704778050020EC
:1003500010B5FFF7F9FF006810BD10B50446FFF7B0
:10036000F3FF046010BD70B5044685690068C106DE
:1003700001D5302600E02026C00707D070BDD4E9A3
:10038000012130469047206A401C20626D1EF6D540
:1003900070BD70B5044685690078C00707D170BD8F
:1003A000D4E9012120209047206A401C20626D1E64
:1003B000F6D570BD09684A0501D540B27047C90538
:1003C000FCD500B2704709684A0501D5C0B2704734
:1003D000C905FCD580B2704770B50C460546012AA8
:1003E00005D02878800600D5EA69002302E00123C1
:1003F00005E05B1C934202D2E05C0028F9D1A869B9
:10040000E618C01AA861286A184428622846FFF72F
:10041000AAFF04E0D5E9012114F8010B9047B4428A
:10042000F8D32846FFF7B5FF70BD00002DE9F04175
:100430000646002410687529314616A510D0FFF72E
:10044000B9FF002802DA404213A507E031688A07A5
:1004500001D512A502E0490704D511A5012401E048
:10046000FFF7B1FF00210A2206F1240709E0B0FBE3
:10047000F2FCB0FBF2F302FB1C003030785418465B
:10048000491C0028F3D123462A463046BDE8F041F6
:1004900000F022BB000000002D0000002B00000037
:1004A0002000000011680268006A530501D5087039
:1004B0000AE0D30501D5088006E0130603D5C2176C
:1004C000C1E9000200E008600120704701694A1C90
:1004D00002610878704700B58FB0CDE90131002185
:1004E000059105497944CDE903101146684600F0AD
:1004F00029F90FB000BD0000E5FFFFFF0A6802F810
:10050000010B0A60704700002DE9FF5F15468A461F
:100510000446DFF8AC80F8440027D8E900103E46D6
:10052000CDE9001010E03AF816106A4602A800F073
:1005300054FF411C07D02178890603D5E269391898
:1005400091420DD80744761C2078800602D5E069D8
:10055000B84205DDAE42E6DB3AF816000028E2D1EB
:10056000A069C01BA0612046FFF7FDFED8E900107E
:10057000CDE90010002017E03AF818106A4602A8EA
:1005800000F02BFFB0F1FF3F81460BD000250DF1AD
:10059000080B05E0D4E901211BF8050090476D1C0C
:1005A0004D45F7D308F10100B0428046E4DB206AF4
:1005B000384420622046FFF7ECFEBDE8FF9F0000B4
:1005C000A26A00002DE9F0418046D21D22F0070208
:1005D0000025D2E90002F52915A614D0011E72F1FA
:1005E000000106DA0023D0EB030063EB020211A640
:1005F00008E0D8F800108B0701D50FA602E04907E4
:1006000001D50EA601251146002408F1240704E0B7
:1006100000F014FA30323A55641C50EA0102F7D166
:100620002B46324621464046BDE8F04100F054BA20
:10063000000000002D0000002B0000002000000042
:1006400030B4002100F1240408E002F00705D208CC
:10065000303542EA4372DB086554491C52EA03050F
:10066000F3D10468002310A2250707D5A40600D4FF
:1006700021B1C46901230DA2641EC46130BC00F025
:100680002BBA10B5044621461068FFF79CFE0246BF
:100690002046BDE810400023D2E7D21D22F007011A
:1006A000D1E90023CCE7000000000000300000008A
:1006B000F0B40D460188090502D5214C7C4402E0C6
:1006C0001F4C7C440E34002100F1240608E002F0A7
:1006D0000F071209E75D42EA03721B097754491CB0
:1006E00052EA0307F3D102780023120704D5702DD4
:1006F00006D009B1022311342246F0BC00F0ECB957
:1007000001231034F8E770B504460D462146106801
:10071000FFF759FE024629462046BDE870400023F7
:10072000C6E7D21D22F00703D3E90023C0E7036820
:10073000126843F0200303600823C3610023B7E776
:10074000046900002DE9F05F894604464FF0000A75
:10075000DFF874B1FB44C0F820A02046E168884768
:10076000002874D0252806D0D4E901219047206ABA
:10077000401C2062F1E700265F462046E16888477A
:100780002028054607DB312D05D2781910F8200CFA
:1007900008B10643F1E7B00701D526F00406C4F816
:1007A0001CA00027C4F818A02A2D09D0284604F060
:1007B0009EF938B304EB8708303DC8F8185019E0AB
:1007C00059F8041B204604EB87029161E1688847D1
:1007D000012F054618D1E069002820DA26F020060E
:1007E0001DE0D8F8180000EB800005EB4000303821
:1007F000C8F818002046E1688847054604F077F9F4
:100800000028EED1012F0AD02E2D08D12046E16814
:1008100088477F1C0546022F46F02006C4DBA069EE
:10082000002803DA404246F00106A061F00701D03B
:1008300026F010066C2D0BD0682D09D04C2D39D028
:100840006A2D35D0742D35D07A2D33D016E038E0AE
:10085000E1682F4620468847B842054609D16C2FEB
:1008600026D04FF48060E16806432046884705465D
:1008700004E06C2F1AD04FF4807006430DB3A5F13D
:100880004100192802D8203546F400664A46294618
:10089000204626604E46FFF763FC80B101280BD04E
:1008A000F61D26F0070000F1080956E74020E4E7AE
:1008B0008020D8E70020D6E706F104094DE7284656
:1008C00052E7206ABDE8F09F946800000FB400234F
:1008D00000B589B00CA900910B99CB60214B7B44EA
:1008E0000693214B7B44079304236FF00042CDE92C
:1008F00001321E4A7A446B4608920246002005F0F7
:1009000097FE09B05DF814FB70B506464FF0FF3056
:1009100015460C46324686B00091CDE90101694684
:100920000020049004A8FFF7D1FF02460498211884
:1009300025B108B1084600E0204628600498002848
:100940000DD0002A02DD0098884208D03246081BEC
:1009500069460094CDE9010404A8FFF7B7FF06B08B
:1009600070BD00001B0A0000330A0000CF01000028
:100970002DE9F04791460F4680460446002614F8BC
:10098000015B2DB100F052F80068405DC007F6D160
:100990002B2D02D02D2D18D0641E4A4639462046F4
:1009A00000F0CCFC27B13968A14201D1C7F8008022
:1009B0004FF0020471050BD54042002803DDFFF71C
:1009C000C3FC0460A007BDE8F08746F48066E4E756
:1009D0000028F8DAFFF7B8FC04606FF00040F2E797
:1009E0002DE9F04115460E46040002D12C6804B9E9
:1009F0000BA4204600F021FD0444207870B1274666
:100A00003146384600F009FD0444207810B100203A
:100A100004F8010B38462C60BDE8F0810027F9E7A7
:100A200000000000004870477805002010B500F075
:100A300037FD001D10BD00BFDD4B000030B5B0F12B
:100A40000A024FEA900E71F100034EEA817EB0EB8C
:100A50000E0061EB91014FEA101E4EEA017E10EB91
:100A60000E0041EB11114FEA102E4EEA016E10EB11
:100A70000E0041EB11214FEA104E4EEA014E10EBF1
:100A80000E0041EB1141401841F100014FEAD00046
:100A900040EA41704FEAD10110EB80054FEA810432
:100AA00044EA907444EB01046D1944EB0404521BB6
:100AB000A3414FF0000348BF0A3200D530BD401CAF
:100AC00041F1000130BD10B50446FFF7AFFF0068EB
:100AD000005D00F0010010BD2DE9F0470D4699467C
:100AE0009246044600F124080168880604D5E069AE
:100AF00021F01001216000E00120A84201DD471B28
:100B000000E00027A1697A1902EB0900081AA06128
:100B10002078C00602D42046FFF725FC002608E016
:100B2000D4E901211AF806009047206A401C761C7F
:100B300020624E45F4DB2078C0060AD52046FFF738
:100B400012FC06E0D4E9012130209047206A401CC5
:100B50002062381EA7F10107F4DC07E0D4E9012187
:100B600018F805009047206A401C2062281EA5F155
:100B70000105F3DC2046FFF70CFC2078000602D5C7
:100B80000220BDE8F0870120FBE770472DE9FF4F09
:100B90000C461E464FF0FF378BB0D2E90001DDF85E
:100BA00060800A908A46C1F30A5505B93D46002186
:100BB00008464FF00000BAF1000F00F4400005DADB
:100BC00000EB80004FF4400101EA50004FEA9059D9
:100BD000B9F1010F00DDB9460A9850EA4A000ED07B
:100BE00044F61050A5F2FF3545432F14B8F1000F1D
:100BF0001ED07542291E1EDDC9F100021CE0B8F1AD
:100C0000010F4FF0000001D0302103E0F24305E076
:100C10002154401CB042FBDB30460022002121540D
:100C20000B99C1F80880C1E900200FB0BDE8F08F32
:100C3000BD1B6D1CDEE74A4600DA694206A800F0DB
:100C4000FDFE06AB93E8070003AB83E807005046C0
:100C50000A9901F0B3F98DE80700A0F500501F389C
:100C600000900398002D0ADD42F21F014A46084415
:100C7000002303A90390684601F05EFC09E0A0F59B
:100C800000504A461F38002303A90390684601F02C
:100C90007DFC8DE807000004000C03D04FF0FF300E
:100CA000410800E01046B8F1000F03D00022009286
:100CB00015461EE0751E05D4FFF7C0FE30326255A2
:100CC0006D1EF9D5B3460122084302D000227F1CD5
:100CD00004E02078302801D100227F1E002A0997E5
:100CE00084D01DE0112D07DAFFF7A8FE30326255DF
:100CF0006D1C50EA0102F5D1084302D00098C8B13A
:100D00000EE00021681E05E0235C625C63542254FF
:100D1000401E491C8142F7DBAB46A81B401E0990D0
:100D2000002004F80B000B98099AC0F80880C0E96D
:100D3000002B7AE711264FF0000857E72DE9F04F16
:100D400088460446D21D22F0070191B0D1E9000186
:100D5000CDE90A0103F0DDFD02460B98C00F01D07A
:100D60002D2007E02068810701D52B2002E02021FB
:100D700001EAC000032A099001D0072A05DB0346D7
:100D80004146204600F090FB0BE12078800601D51B
:100D9000E06900E00620B8F1650F814606D0B8F1A1
:100DA000660F18D0B8F1670F70D131E00020B9F1AB
:100DB000110F009001DB112301E009F101030AAAE0
:100DC00001A90CA8FFF7E2FEDDE90C70002609F18D
:100DD0000105834647E001204B4600904FF0004755
:100DE0000AAA01A90CA8FFF7D1FEDDE90DB00C9904
:100DF0005D46002610B909F101000D18B9EB050098
:100E000003D4C0F1FF3609F10105A5EB09002BE081
:100E1000B9F1010F01DA4FF001090020B9F1110F0A
:100E20000090484601DD112300E003460AAA01A90B
:100E30000CA8FFF7ABFEDDE90C704D46002683469B
:100E4000207800070AD4AB4500DA5D4601A8012DE1
:100E500004DD411911F8011C302907D04F4502DA91
:100E600017F1040F04DA012082460FE06D1EEEE751
:100E7000002F02DCED1B3E4403E0781CA84200DD9D
:100E80007D1CB81B00F1010A4FF0004720780007D5
:100E900003D4AA4501DB4FF0FF3A0021B7F1004F20
:100EA0000DF143088DF8431024D002202B23002F8E
:100EB00001DA7F422D230A21021EA0F1010000DC8D
:100EC0005FB197FBF1FC97FBF1F201FB1C7C17462D
:100ED0000CF1300C08F801CDEEE7A8F10100037029
:100EE0002188090501D5452100E06521A0F101080F
:100EF00000F8011C09980FA9A1EB0807FF1D00B11C
:100F00000120411901EBEA70A1693844081A401E1A
:100F1000A0612078C00602D42046FFF724FA099881
:100F200028B1D4E901219047206A401C2062207832
:100F3000C00622D52046FFF716FA1EE0002E04DB7D
:100F4000B34502DD01A8805D00E03020D4E9012135
:100F50009047206A401C2062761CAAF101005FEADB
:100F6000000A0AD100F09CFAC0680168405CD4E92C
:100F700001219047206A401C2062281EA5F101052E
:100F8000DCDC07E0D4E9012118F8010B9047206A66
:100F9000401C2062381EA7F10107F3DC2046FFF752
:100FA000F8F9032011B041E62DE9F04F04460D4653
:100FB000D21D22F0070089B0D0E900974846394693
:100FC00003F0A7FC0246F80F01D02D2307E02068AC
:100FD000810701D52B2302E0202101EAC0038DF80F
:100FE00020300BB1012000E00020032A824601D00E
:100FF000072A04DB2946204600F056FA3FE1207814
:10100000800601D40D2500E0E569C7F30A560D2DD1
:1010100049DA00214FEA175B08464FF00000002F25
:1010200000F4400007DA00EB80004FF4400100EBD1
:10103000D07001EA60008115012901DD4FF0FF3118
:1010400000224FEA850CBCF1180F06D31346ACF111
:1010500018004FF08052C24003E04FF4801323FA8F
:101060000CF30CF10C0CBCF1200F04D3ACF1200CF0
:1010700009FA0CF001E007FA0CF000294FF00048E3
:1010800001DD18B90FE00ED140450CD319EB020970
:101090005F4121B9404502D19F4329EA0209BBEBD8
:1010A000175F00D0761C2088000502D57B48784465
:1010B00002E07A487844193808AA302302F80A3046
:1010C000037C0AF10101002E0AF1020A53546A4618
:1010D00002DC4FF0300101E04FF031014FF0010828
:1010E0008DF8001002D0A6F2FF3603E059EA47015E
:1010F00000D06B4E002D02DC2178090704D54FF09B
:1011000002082E218DF80110C44600210BE0C7F320
:1011100003433F01C35C491C6D1E02F808300529DA
:1011200008F1010801DA002DF1DC00210CE000EBF0
:101130001973491C1B786D1E082902F808304FEA04
:10114000091908F1010801DA002DF0DC21688B068D
:1011500002D516E0A8F10108E04505DD02EB080321
:1011600013F8013C302BF5D0B8F1000F09DD02EB8C
:10117000080313F8013C2E2B03D1090701D4A8F171
:101180000108002D05DD3E2102F808106D1E08F152
:101190000108407C002E02F8080008F1010804DA7A
:1011A0002D20764202F8080002E02B2002F8080009
:1011B0000A214FF47A70864208F101080BDB96FB96
:1011C000F0F3303302F8083096FBF0F308F1010831
:1011D00000FB136601E0642E0CDB642096FBF0F349
:1011E000303302F8083096FBF0F308F1010800FBF9
:1011F000136601E00A2E06DB96FBF1F0303002F8B0
:10120000080008F1010896FBF1F001FB1060303096
:1012100002F80800A16908F1010808EB050202EBD9
:101220000A00081AA0612078C00602D42046FFF701
:101230009AF8216A08AE01EB0A00206204E0D4E9C2
:10124000012116F8010B9047BAF1010AF7D2207874
:10125000C00602D52046FFF786F86E4609E016F86C
:10126000010B3E280FD0D4E901219047206A401C91
:101270002062B8F10108F2D22046FFF78AF809B0DF
:101280000320BDE8F08F206A2844206203E0D4E9FF
:101290000121302090476D1EEBD3F8E7016000007C
:1012A00002FCFFFF10B5436913B1AFF3008001E00A
:1012B000FFF792F8012010BD127800F124010A70A6
:1012C00000224A700122EDE711684FF0FF32E9E792
:1012D00010B5436913B1AFF3008001E0FFF714F9D3
:1012E000012010BD128800F1240182840022C284F2
:1012F0000122EDE711684FF0FF32E9E7426842B1A1
:10130000016811F8013B23B1521EC0E900121846D2
:1013100070470121C160881E704742685AB1C36896
:10132000016843B983688B4205D0491E521CC0E94D
:101330000012002070474FF0FF3070472DE9F05F3A
:10134000824615468B4600270AF10104B94600780B
:10135000302801D09DB113E014F8010B0127782843
:1013600003D0582801D045B10AE00DB1102D07D1A6
:10137000002714F8010B102502E0082500E00A25DB
:101380000026B0460EE005FB080005FB06F101272C
:101390001FFA80F801EB1046B6F5803F00D3B9463E
:1013A00014F8010B294600F0BFF80028EBDABBF176
:1013B000000F05D00FB1641E00E05446CBF800408A
:1013C000B9F1000F06D0FEF7BFFF02210160C81E71
:1013D000BDE8F09F48EA0640FAE770B516460C46AD
:1013E0000546FFF723FB036893F80101012806D0A7
:1013F000FF2C0FD8185D68B101202C7070BDD3F898
:1014000007013246214603F2071303442846BDE88C
:10141000704018474FF0FF3070BD30B503461D785F
:101420001DB10A4603E0AC4201D1181A30BD12F8D2
:10143000014B002CF7D15B1CF1E730B503461D785A
:101440003DB10A4612F8014B1CB1AC42FAD15B1C0B
:10145000F5E7181A30BD7546FFF7E4FAAE46050009
:101460006946534620F00700854618B020B5FEF7C0
:10147000EFFEBDE820404FF000064FF000074FF0B0
:1014800000084FF0000B21F00701AC46ACE8C009A2
:10149000ACE8C009ACE8C009ACE8C0098D467047AB
:1014A00000487047980500202DE9F0411F4604468A
:1014B00003260168072A01F4006004DB08B116A5C1
:1014C00005E016A503E008B115A500E015A521F07B
:1014D00010002060A069C01EA0610FB1401EA06175
:1014E0002046FEF740FF4FB1D4E90121384690472E
:1014F000206A401C2062C01C206206E0206AFAE7D5
:10150000D4E9012115F8010B9047761EF8D2204648
:10151000FEF73FFFBDE8F0814E414E006E616E0068
:10152000494E4600696E66003A2800D2303820F0F5
:101530002002412A01D3A2F13700884201D34FF0A3
:10154000FF3070472DE9FF4F06468BB00878FF2823
:1015500006D0491C2D2805D000244FF0000908E0D2
:1015600000200CE00124F8E709EB8903491C00EB9B
:1015700043090878FF28F7D114B1C9F1000081466A
:10158000107800252C46AA4629462D2801D02B2864
:1015900004D1521C2D2813D0002082468B4610788F
:1015A000FF280FD04FF0000C0A21521CA5FB017838
:1015B00004FB018105FB0C11C5194BEB0104EEE79F
:1015C0000120EAE7002108464FF00000BAF1000FC1
:1015D00002D000EB80004008C0F38157012F01DDED
:1015E0004FF0FF370E9955EA040009EB01080BD0C4
:1015F0004FF0020918F5FA7F16DA4FEACA70002F89
:10160000706008DD012007E04FEACA70C6E900B04B
:101610000FB0BDE8F08F00203060FEF795FEC0F8F7
:1016200000901821084616E0B8F5FA7F18DD002F63
:1016300002DAF748784401E0F6487844D0E900102F
:10164000C6E9001040EACA707060FEF77DFEC0F87F
:101650000090142108460FB0BDE8F04F04F081BFA0
:10166000002108464FF00000B8F10001099002DAAD
:10167000C7F1000200E03A4601DAC8F1000106A80D
:1016800000F0DCF906AB93E8070003AB83E8070042
:1016900044F23E005BEA04010090584604D144F253
:1016A0001E012C465D460091210C0904014306D120
:1016B0000099240444EA15442D041039009104F0E3
:1016C0007F41014306D10099240244EA15642D02AA
:1016D0000839009104F07041014306D100992401BA
:1016E00044EA15742D01091F009104F040410143A3
:1016F00006D10099A40044EA9574AD00891E0091BA
:1017000004F00041084304D100986D196441401E63
:1017100000904FF001033A466846B8F1000FCDE95A
:10172000014503A902DD00F046FF01E000F019FFCA
:10173000BAF1000F04460D4601D084F000440021A8
:1017400008464FF00000099940F2FF77484010F03A
:101750000C0F07D124F00040284303D0C4F30A50F3
:10176000B84212D1FEF7F0FDC0F80090C4F30A5061
:10177000B8420AD1A8487844D0E90010C6E9001060
:1017800004F000410843706042E7C6E900543FE7B7
:101790002DE9FF4F1F464FF0000A4FF0FF38454636
:1017A00091B0D7E90146CDF83CA0FFF779FEC068BB
:1017B0000168405C1090B96912986D1C8847396ABD
:1017C000814688470028F6D1B9F1FF3F0AD0002EA4
:1017D00024F4D06411DDB9F12B0F08D0B9F12D0F2D
:1017E0000BD102E0404615B013E744F48064B969B8
:1017F00012986D1C8847761E8146600504A901D5A4
:101800002D2000E02B20002E01F1010B0DF13008FE
:101810008DF810003FDDB9F1690F08D0B9F1490F1B
:1018200005D0B9F16E0F02D0B9F14E0F1CD13B4675
:1018300001A8009580E85002DDE912126FF0020065
:1018400004F0FAFEC11CCED10EE0B96912986D1CED
:10185000884781461398761E44F4007405600F98FB
:10186000401C002E0F9016DDB9F1300FEDD0B9F10C
:10187000780F02D0B9F1580F0DD10F9801280AD175
:101880003B46CDE90054DDE91212001F029604F038
:10189000D1FEC11CA7D1109989453ED144F08004E6
:1018A00006E01399681CAAF1010A44F40074086068
:1018B000B9696D1C1298761E884730288146F0D091
:1018C0002BE01099894505D1200603D4761E44F0FB
:1018D000800418E0484603F00AF908B3761E0DF1BB
:1018E00023018B4544F4007408D2A9F130000BF8B1
:1018F000010B200607D5AAF1010003E0200602D45F
:101900000AF101008246A00502D51399681C0860FF
:10191000B96912986D1C88478146002ED1DC53E0CE
:10192000002E51DDB9F1650F02D0B9F1450F4BD151
:10193000A00549D5B9696D1C1298761E24F440742F
:101940008847002E81460CDD2B2804D0B9F12D0FDD
:1019500007D144F48074B96912986D1C8847761ECB
:101960008146E00501D52D2100E02B2108F8011B5F
:10197000CDF8008021E0761E0DF13901884544F450
:1019800000740CD2A9F1300010F0FF0088F80000BC
:1019900002D10099884509D908F1010806E0E0055F
:1019A00001D51E4801E042F20F708246B9691298D3
:1019B0006D1C8847814613980560002E04DD48465B
:1019C00003F095F80028D6D1F96912988847FF20CE
:1019D00053468BF8000088F8000000200A900B9016
:1019E00004AA0CA90AA8FFF7ADFDA00502D46FF068
:1019F0000100F8E614F0240F12D0E0071CD138687B
:101A0000DDE90A12031D3B600068C0E9001213E023
:101A10004C5B00003E5B0000025A0000F1D8FFFF63
:101A20000AA9684602F0F2FFE00705D13868009A7B
:101A3000011D3960006802602846D4E62DE9F047B0
:101A4000814616468AB0354878440DC88DE80D00A9
:101A500032487844801C03AC0DC884E80D0041F680
:101A60009B300844372190FBF1F290FBF1F5A5F192
:101A7000800501FB12041B3C02D56442012000E0FA
:101A80000020DFF898A080460027FA44AAF1BE0A99
:101A90000EE0E0070AD03246684607EB4701012313
:101AA0000AEB810100F072FD8DE8070064107F1CD5
:101AB000002CEED1194F7F44AE3F19E0E80715D056
:101AC00007EB04100DF1180A90E80E008AE80E00EA
:101AD000C068F04201D1981908903246012306A946
:101AE00003A800F053FD03AB83E807006D10641CEE
:101AF000002DE3D14FF0010332466946B8F1000FE3
:101B000003A802D000F018FD01E000F03FFDC9E994
:101B10000001C9F808200AB0BDE8F087F8560000B7
:101B200010B50446AFF300802046BDE81040FEF734
:101B30007ABB00002DE9FF4F1F464FF03C0987B0EC
:101B40004FF00042DDE9141001F10108DDF858A062
:101B500002EA405003900020059083460546044663
:101B60000490B969461E08988847AAF1010A0290B4
:101B7000BAF1000F3BDD02982E2815D01021FFF797
:101B8000D3FC00282EDB4FF0010B0599014317D041
:101B9000B9F1000F0BDB4A46C11700F0FBF9054312
:101BA0000C43A9F1040905E0012004900BE008B101
:101BB00045F0010501200590049820B9361D02E08A
:101BC000049800B1361FB969089808F101088847E0
:101BD000BBF1000FAAF1010A0290C9D00999C1F81E
:101BE0000080C5E70298702808D0502806D0F9690F
:101BF00008988847BBF1000F14D04FE000200290F6
:101C00000120BBF1000F049009D0B969089808F1D0
:101C100001088847AAF10109B9F1000F07DCF96949
:101C2000089888476FF001000BB0BDE8F08F2B28B3
:101C300004D02D280CD14FF0FF300490B9690898DA
:101C400008F101088847A9F10109B9F1000FE6DDA3
:101C5000411CE4D00A21FFF767FC0028DFDB029972
:101C600008F1010801EB810100EB41000290B96924
:101C7000089888470A21FFF757FC099AA9F101093A
:101C8000B9F1000FC2F8008001DD0028E7DAF96938
:101C9000089888470499029800FB016655EA0400F9
:101CA00004D004F04041090002D006E0039898E017
:101CB000A40044EA9574AD00B61E04F0004108008B
:101CC00002D16D196441761E159810F0240F03D0CF
:101CD0004FF00B095C4803E04FF028096FF07D00DE
:101CE0008246564507DAAAEB06018944B9F1410F4D
:101CF00001DD4FF0410901200021A9F1010200F0AE
:101D000049F9024628400B462140084301D00121F1
:101D100000E00021501E029143F1FF312840214094
:101D2000084301D0012000E000200299834651EAD7
:101D30000B014FD0002108464FF00000039900F43A
:101D4000400039B100EB80004FF4400100EBD0704F
:101D500001EA60008015012802DD4FF0FF3000E04D
:101D600013D0401C36D0029860B3BBF1000F0CD1E9
:101D70004A460120002100F00DF928402140084387
:101D800001D0012000E00020E0B101204A460021FE
:101D900000F000F9034640190A4661412D1A8C41B2
:101DA00011D3B9F1400F09DD159810F0240F02D0BE
:101DB000AAF1340603E0AAF1170600E0761C00251C
:101DC0004FF0004406E05B1E42F1FF3220EA0305BB
:101DD00021EA0204CAF10100B04206DA1B49039865
:101DE00008430190002000900EE0039AC4F3D32131
:101DF000E80A0A43164940EA44500A433146CDE90D
:101E00000002684602F068FE159810F0240F0BD00F
:101E10001598C00715D13868DDE90012031D3B6035
:101E20000068C0E900120CE002A8694602F0EEFD6D
:101E30001598C00705D13868029A011D39600068FD
:101E400002604046F0E6000002FCFFFF0000F07F69
:101E50000000F03F2DE9FF4F92461D4685B04FF040
:101E60000041DDE9124BDDE914727F1E01EA4B509F
:101E7000414940F0FF4940EA0108002122F02000DA
:101E80004928049102D04E2828D04CE03BA00126DE
:101E900007C88DE80700A9690698641C88477F1E5B
:101EA000014606D41DF8060018B121F02001814238
:101EB0000BD0E96906988847032E34D0082E32D01B
:101EC0006FF0010009B0BDE8F08F761C032E01D041
:101ED000082EE0D1601CCAF80000DCE7A96906986A
:101EE000641C88477F1E2AD420F02000412826D178
:101EF000A9690698641C88477F1E20D420F0200022
:101F00004E281CD1A9690698641C88477F1E48F496
:101F1000002849F48009CAF8004001D4282806D0D6
:101F2000E969069888475FEACB7012D022E0A96978
:101F30000698641C88477F1E01D4002803DAE969EB
:101F400006988847BCE72928F1D1641CCAF80040EC
:101F5000E9E71BF0240F07D028680499031D2B60C4
:101F60000068C0E9001805E02868021D2A600068C2
:101F7000C0F800902046A5E70000F07F494E464992
:101F80004E4954590000000001491820ABBEFEE73D
:101F900026000200B2F120030AD5C2F1200301FAA3
:101FA00002F120FA03F300FA02F041EA030170475C
:101FB00000FA03F14FF00000704770475FEA400CF1
:101FC00008BF91F0000F4FEA8C234FEAC12243EA89
:101FD00051514FEA1C5018BF00F5F0404FEA300055
:101FE00018BF41F000415FEA6C5C00F02980BCF151
:101FF000FF3F08BF40F080407047130C06BF12043B
:102000004FF0100C4FF0000C130E04BF12020CF135
:10201000080C130F04BF12010CF1040C930F04BF42
:1020200092000CF1020CD30F04BF52000CF1010C12
:1020300011464FF00002A0F11F00A0EB0C0070470A
:1020400011F0004F08BF704731F000413FF4D5AFA9
:102050000B0C06BF09044FF0100C4FF0000C0B0ED8
:1020600004BF09020CF1080C0B0F04BF09010CF1AD
:10207000040C8B0F04BF89000CF1020CCB0F04BFC2
:1020800049000CF1010CCCF12003A0EB0C0022FA6A
:1020900003F302FA0CF241EA030100F10100704778
:1020A00020F07F4C80EA030023F07F47ACEB07036E
:1020B00003F57C5300F0004003F1FF032DE9804954
:1020C0004FEA154B09B44FEA144325EA0B4E24EAB4
:1020D00003480FF2042606EB132749083E785FEA0F
:1020E000320203FB0667C7F5000707FB06F64FEA57
:1020F00054374FEAD64606F1020607FB066CCCF1D0
:10210000005C4FEA1C472CEA074C07FB06F40CFB6B
:1021100006F504EB15464FEA961634BF00204FF043
:1021200000404FEAD13706FB07FC4FEA1C4C0CFB82
:102130000BF7D21B03FB0CF761EB07010CFB0EF74F
:10214000B0EB074072EB17420CFB08F734BFA2EB71
:102150000742B2EB074261EB17414FEA0C444FEAEA
:10216000910706FB07FC4FEA1C4C0CFB0BF7B0EB8E
:10217000C74072EB573203FB0CF734BFA2EBC742E8
:10218000B2EBC74261EB57310CFB0EF7B0EBC70067
:1021900072EB57720CFB08F734BFA2EBC702B2EB2D
:1021A000C70261EB5771039F4FEA816141EA9211C7
:1021B00004EBCC044FEAD1374FEA826206FB07FCFE
:1021C00042EA90124FEA80604FEA1C4C0CFB0BF77E
:1021D000D21B03FB0CF761EB07010CFB0EF7B0EB16
:1021E000074072EB17420CFB08F734BFA2EB074223
:1021F000B2EB074261EB17414FEA8C554FEA91076A
:1022000004EB9C2406FB07FC4FEA1C4C0CFB0BF771
:10221000B0EBC74072EB573203FB0CF734BFA2EBB5
:10222000C742B2EBC74261EB57310CFB0EF7B0EB84
:10223000C70072EB57720CFB08F734BFA2EBC70262
:10224000B2EBC70261EB577115EB4C254FEA816188
:1022500041EA92114FEA82624FEAD13742EA901284
:1022600006FB07FC44F100044FEA80604FEA1C4C77
:102270000CFB0BF7D21B03FB0CF761EB07010CFB0C
:102280000EF7B0EB074072EB17420CFB08F734BFB8
:10229000A2EB0742B2EB074261EB174115EB1C15AD
:1022A0004FEA813141EA92414FEA823242EA90425A
:1022B0004FEA80304FEA0C7644F1000448EA0343C9
:1022C0004EEA0B484FF0000EB2EB080C71EB03071F
:1022D00024BF624639464EEB0E0E4FF0000B00183D
:1022E000524149414BEB0B0BB2EB080C71EB03076E
:1022F0007BF1000B24BF624639464EEB0E0E4FF0C9
:10230000000B0018524149414BEB0B0BB2EB080C90
:1023100071EB03077BF1000B24BF624639464EEB9D
:102320000E0E51EA020718BF46F0010616EB0E76B4
:1023300055F1000254F1000103D5BDE88901BDE863
:102340000088BDE88901BDE80048B619524141EB5B
:102350000101A3F10103704780807F7E7D7C7B7A41
:102360007978777676757473727171706F6E6E6D41
:102370006C6C6B6A6A6968686766666564646363E7
:1023800062616160605F5F5E5E5D5D5C5C5B5B5A6D
:102390005A595958585757565655555554545353DA
:1023A00052525251515050504F4F4F4E4E4D4D4D35
:1023B0004C4C4C4B4B4B4A4A4A4949494848484780
:1023C00047474746464645454544444444434343BE
:1023D000434242424241414146EA0646A3F5705318
:1023E0004FEA164646EA42564FEAD22242EA4152A4
:1023F00010B54FEAD121A3F1010300F02FF820F02E
:10240000004000F1020C00F0004701EB00501146C3
:10241000BCF5006F40EA070000D210BDBAF1000F12
:102420000AD01CB503B44FF004004FF004014FF084
:1024300000000FBCBDE810404FF00001BBF1010FE0
:10244000B9BF04484FF0FF310348002140EA0700BC
:1024500010BD00BFFFFFEF7F0000F07F002B9C4608
:1024600030D477002BD01CB54FEA370703B44FF0B8
:1024700010004FF01001BAF1000F06D0BCF1000FB0
:10248000DCBF40F0080040F008014FF000000FBC36
:10249000BDE810400BF1010BBBF1010F08BF5FEA73
:1024A000170722BF12F1010211F101014FF00041A3
:1024B00043F1000300F0004043EA00007047F9D305
:1024C0005708D0E746EA064613F1400F4FEA164692
:1024D0001FDD13F1200FDFBF16430A460021203312
:1024E0005B42BED0C3F1200746EA064602FA07F770
:1024F0004FEA164646EA0706C3F1200722FA03F21E
:1025000001FA07F721FA03F14FF0000342EA07024C
:10251000A7E746EA020646EA06464FEA164646EAB4
:102520000106BCBF46EA0646360C4FF000034FF0EA
:1025300000024FF0000194E72DE9804C9A46934643
:1025400070B491E8380007C831EA400C48BF34EA5B
:10255000430C03D5FFF7A4FDFFF780FFF0BCBDE8F7
:10256000008C2DE9804C9A46934670B491E838006F
:1025700007C831EA400C48BF34EA430C03D5FFF7E3
:102580008FFDFFF729FFF0BCBDE8008C2DE9804CE2
:102590009A46934670B491E8380007C810F0804F0F
:1025A00008BF13F0804F03D100F01AF8FFF756FF71
:1025B000F0BCBDE8008C2DE9804C9A46934670B47F
:1025C00091E8380007C810F0804F08BF13F0804F23
:1025D00003D100F005F8FFF7FFFEF0BCBDE8008C6A
:1025E00020F07F4780EA030023F07F4C07EB0C03C9
:1025F000A3F57C5300F00040A3F1FE0392F0000F1E
:1026000000F0B38095F0000F00F077802DE90149CC
:102610004FEA11404FEA144621EA004800FB06FC4D
:1026200024EA064708FB06F607FB08F800FB07F755
:1026300018EB06484CEB164C4FEA124B18EB0748C8
:102640004FEA15464CEB174022EA0B4E0BFB06FCFB
:1026500025EA06470EFB06F607FB0EFE0BFB07F707
:102660001EEB064E4CEB164C4FF000061EEB074ED1
:102670004CEB174B18EB0B0840F1000018EB0E0B5E
:1026800058EB000840F100008F1A4FF000013CBFEA
:10269000C943661B14BFB5EB040C00213CBFC94302
:1026A000F61B4FEA17444EEA8E0E27EA04454FEA1E
:1026B0001C4704FB07622CEA074C05FB07F70CFBE1
:1026C00005F604FB0CFC16EB074642EB174216EB33
:1026D0000C4642EB1C421BEB060658EB0202414142
:1026E00046EA9E0601D5BDE80189B619524141EB83
:1026F0000101A3F10103BDE801894FEA14454FEA46
:10270000114724EA054621EA074C05FB07F406FBBE
:1027100007F70CFB06F105FB0CFC11EB074144EB42
:1027200017444FEA124711EB0C4144EB1C4422EAD8
:10273000074C05FB07F206FB07F70CFB06F605FB4B
:102740000CFC16EB074642EB174216EB0C4642EB2D
:102750001C456A1854F1000148BF7047B619524130
:1027600041EB0101A3F10103704795F0000F37D051
:102770004FEA11424FEA144721EA024624EA074C85
:1027800002FB07F106FB07F70CFB06F402FB0CFC4F
:1027900014EB074441EB17414FEA154714EB0C4487
:1027A00041EB1C4125EA074C02FB07F506FB07F746
:1027B0000CFB06F602FB0CFC16EB074645EB174537
:1027C00016EB0C4645EB1C42121951F1000148BFB3
:1027D0007047B619524141EB0101A3F10103704763
:1027E0004FEA14454FEA114724EA054621EA074C0F
:1027F00005FB07F106FB07F70CFB06F24FF000069E
:1028000005FB0CFC12EB074241EB174112EB0C42AB
:1028100051EB1C4148BF7047921841EB0101A3F1F5
:102820000103704700B587B00121480401F060F84A
:102830000121042001F06CF818208DF81B00042001
:10284000ADF8180003208DF81A0006A9204800F002
:1028500031F948208DF81B000820ADF8180003203E
:102860008DF81A0006A91A4800F024F94FF4165002
:1028700002900020ADF814000C20ADF812000020EA
:10288000ADF81000ADF80E00ADF80C0002A911482B
:1028900001F0C8FF012240F225510E4801F09CFFD3
:1028A0004FF4A06000F032FC26208DF804000120D7
:1028B0008DF807008DF805008DF8060001A800F0DE
:1028C000EDFB0121034801F044FF07B000BD00000B
:1028D00000080140004400400FB400B59BB01DA8A3
:1028E000019002A8019A1C99FDF7C4FC00200190F8
:1028F00002A800F013F81BB05DF814FB10B50446F5
:102900002146054801F0FFFF00BF8021024801F089
:102910002CFF0028F9D010BD0044004070B50446DB
:10292000002504E0605DFFF7E9FF681CC5B2605D4B
:102930000028F7D170BD00BFFEE7704770B50446B0
:10294000012C09D10B4801F0A6FC05B20021094871
:1029500001F0D0FD284670BD022C09D1064801F0D7
:102960009AFC05B20021044801F0C4FD2846F2E7B4
:102970000020F0E7000400400008004000B587B0E8
:102980000121022000F0B4FF0121042000F0C0FF6B
:1029900048208DF81B00C020ADF8180003208DF8EA
:1029A0001A0006A93F4800F085F80020ADF8120093
:1029B000ADF80E004FF6FF70ADF810000020ADF836
:1029C0000C008DF8140003A9374801F0C1FD6846DA
:1029D00001F0CCFC0020ADF800000F20ADF808009D
:1029E0006946314801F06CFC0420ADF800000F206E
:1029F000ADF8080069462C4801F062FC00231A4635
:102A00000321294801F026FC0121274801F016FC8A
:102A10000121042000F06CFF0121082000F078FF64
:102A200048208DF81B00C020ADF8180003208DF859
:102A30001A0006A91D4800F03DF80020ADF812006C
:102A4000ADF80E004FF6FF70ADF810000020ADF8A5
:102A50000C008DF8140003A9154801F079FD6846B3
:102A600001F084FC0020ADF800000F20ADF8080054
:102A700069460F4801F024FC0420ADF800000F2047
:102A8000ADF8080069460A4801F01AFC022300224A
:102A90000321074801F0DEFB0121054801F0CEFBD0
:102AA00007B000BD0008014000040040000C0140D8
:102AB000000800402DE9F0410246002500260020D4
:102AC00000230024002791F803C00CF00F0591F8B3
:102AD00003C00CF0100CBCF1000F03D091F802C041
:102AE0004CEA050591F800C0BCF1000F31D0146824
:102AF00000202BE04FF0010C0CFA00F3B1F800C0FD
:102B00000CEA03069E4220D183004FF00F0C0CFA12
:102B100003F7BC4305FA03FC4CEA040491F803C034
:102B2000BCF1280F06D14FF0010C0CFA00FCC2F8E2
:102B300014C00AE091F803C0BCF1480F05D14FF072
:102B4000010C0CFA00FCC2F810C0401C0828D1D3BC
:102B50001460B1F800C0BCF1FF0F34DD54680020F0
:102B60002EE000F1080C4FF0010808FA0CF3B1F860
:102B700000C00CEA03069E4221D183004FF00F0CE7
:102B80000CFA03F7BC4305FA03FC4CEA040491F881
:102B900003C0BCF1280F05D100F1080C08FA0CF8AD
:102BA000C2F8148091F803C0BCF1480F07D100F1BE
:102BB000080C4FF0010808FA0CF8C2F81080401C0D
:102BC0000828CED35460BDE8F08102460020936807
:102BD0000B400BB1012000E00020704741617047BD
:102BE000016170470AB1016100E04161704700BFB7
:102BF000FEE700000548007828B104490878002164
:102C0000024A117070470020FCE700001400002009
:102C100010B510210E48FFF7D8FF08B9012010BDEC
:102C200020210B48FFF7D1FF08B90220F7E7012167
:102C30000848FFF7CAFF08B90320F0E7022105485A
:102C4000FFF7C3FF08B90420E9E70020E7E7000029
:102C500000080140000C014008B50121082000F0E7
:102C600057FE0121042000F053FE48208DF8030098
:102C70000320ADF800008DF8020069460548FFF713
:102C800019FF3020ADF8000069460348FFF712FF36
:102C900008BD0000000C01400008014010B50F48BD
:102CA0000078401C0D49087008460078142813DB92
:102CB000002008700A4800780A490870FFF7A8FF4A
:102CC000074908700846007830B90648007818B1FE
:102CD000044800780449087010BD00001500002069
:102CE00016000020170000201400002008B5012164
:102CF000102000F00DFE10208DF803004002ADF80A
:102D0000000003208DF8020069460448FFF7D2FE58
:102D10004FF400510148FFF763FF08BD0010014068
:102D200010B54FF400510248FFF75AFF10BD0000E4
:102D30000010014010B54FF400510248FFF74EFF5C
:102D400010BD0000001001402DE9FF4704460D466C
:102D500017461E46DDE90C890E2269463B2000F02D
:102D600050F89DF801009DF8001040EA012000B2E3
:102D700020809DF803009DF8021040EA012000B277
:102D800028809DF805009DF8041040EA012000B25B
:102D900038809DF809009DF8081040EA012000B233
:102DA00030809DF80B009DF80A1040EA012000B227
:102DB000A8F800009DF80D009DF80C1040EA0120D5
:102DC00000B2A9F80000BDE8FF8710B500F0BEF81A
:102DD00001216B2000F044F800216C2000F040F845
:102DE0000721192000F03CF800211A2000F038F8E3
:102DF00018211B2000F034F818211C2000F030F8B6
:102E000010BD2DE9F04107460E46154600F013F9B6
:102E1000D02000F0F7F800F0C1F8384600F0F2F8E2
:102E200000F0BCF800F007F9D12000F0EBF800F05A
:102E3000B5F800240EE000F0C0F83055681EA0423E
:102E400003DD002000F0D2F802E0012000F0CEF80F
:102E5000601CC4B2AC42EEDB00F0FBF8BDE8F081D0
:102E600070B505460C4600F0E6F8D02000F0CAF830
:102E700000F094F8284600F0C5F800F08FF82046DE
:102E800000F0C0F800F08AF800F0E3F870BD00BF71
:102E9000FEE7000008B50121082000F039FD1020F0
:102EA0008DF803004FF47040ADF8000003208DF85A
:102EB000020069460248FFF7FDFD00F0B9FC08BDBD
:102EC000000C014070B505460C46012D1CD1002CAC
:102ED0000BDB01031C48FFF783FE69031A48FFF769
:102EE0007DFEA0B200F0F2FC2CE04FF480511648B9
:102EF000FFF774FE4FF400511348FFF771FE614273
:102F000088B200F0E3FC1DE0022D1BD1002C0BDB8E
:102F100069030D48FFF764FEA9030B48FFF75EFE47
:102F2000A0B200F0DBFC0DE04FF480410648FFF753
:102F300055FE4FF400410448FFF752FE614288B24B
:102F400000F0CCFC70BD0000000C014008B5012170
:102F5000082000F0DDFC14208DF803004FF44060E1
:102F6000ADF8000003208DF8020069460448FFF721
:102F7000A1FD4FF440610248FFF732FE08BD00009A
:102F8000000C014010B54FF400610348FFF71DFE2F
:102F90000446204610BD0000000C014010B5012081
:102FA00000F06EF8012000F05FF8FFF7EBFF044639
:102FB000002000F059F8204610BD70B50025012012
:102FC00000F05EF800240DE0012000F04DF8FFF75E
:102FD000D9FF10B1802020410543002000F044F8C3
:102FE000601CC4B2082CEFDB284670BD10B5044647
:102FF000204600F045F8012000F036F8002000F0EF
:1030000033F810BD70B50546002411E08021214140
:10301000294009B1012100E00021084600F030F804
:10302000012000F021F8002000F01EF8601CC4B25E
:10303000082CEBDB70BD10B5012000F021F8012059
:1030400000F012F8002000F01BF8002000F00CF84F
:1030500010BD10B5002000F013F8012000F004F8B6
:10306000012000F00DF810BD10B5044622464FF4C3
:1030700080610248FFF7B6FD10BD0000000C014062
:1030800010B5044622464FF400610248FFF7AAFD3E
:1030900010BD0000000C01407047000070B5002119
:1030A00000230F22C47804B3154C246804F4E064B0
:1030B000C4F5E064210AC1F10403CA40447804FA6B
:1030C00003F184781440214309010E4C0678A15580
:1030D000047804F01F050124AC4005786D11AD00A3
:1030E00005F1E025C5F8004109E0047804F01F056A
:1030F0000124AC40044D0678761145F8264070BD99
:103100000CED00E000E400E080E100E00249014352
:10311000024A1160704700000000FA050CED00E063
:1031200000200CE0002106E00022064B03EBC01358
:103130005A544A1CD1B28029F6DB421CD0B208286E
:10314000F0DB7047140100202DE9F04304460D46E2
:1031500016461F46284638E0224631E0002A2DDB7D
:103160007F2A2BDC002829DB3F2827DC4FEAE07C84
:1031700000EB5C7C4FEAEC0CDFF8588008EBCC1CD1
:103180001CF802C003464FEAE07800EB58784FEA9B
:10319000E808A0EBC8094FF0010808FA09F82CEA82
:1031A000080C01464FEAE07800EB58784FEAE8084F
:1031B000DFF8209009EBC81808F802C0511C0AB2C9
:1031C000A1199142CADC411C08B2E9198142C3DC51
:1031D000BDE8F0831401002038B5002406E0002586
:1031E00000E06D1CB5F57A7FFBD3641CB4F57A7FE3
:1031F000F5D30121082000F08BFB14208DF803008B
:1032000003208DF802004FF48070ADF8000069468D
:103210000848FFF74FFC4FF40070ADF80000694616
:103220000448FFF747FC012000F054FA012000F0A9
:103230005DFA38BD000C014070B50546002411E070
:1032400080212141294009B1012100E000210846E7
:1032500000F04CFA012000F03DFA002000F03AFAAC
:10326000601CC4B2082CEBDB012000F033FA002014
:1032700000F030FA70BD10B5012000F037FA0120DF
:1032800000F028FA002000F031FA002000F022FAC5
:1032900010BD10B5002000F029FA012000F01AFA44
:1032A000012000F023FA10BD10B5FFF795FFAE2006
:1032B00000F028FAD52000F025FA802000F022FA4C
:1032C000A82000F01FFA3F2000F01CFAD32000F0E5
:1032D00019FA002000F016FA402000F013FAA1209D
:1032E00000F010FAC82000F00DFADA2000F00AFA17
:1032F000122000F007FA812000F004FACF2000F03D
:1033000001FAD92000F0FEF9F12000F0FBF9DB20F2
:1033100000F0F8F9302000F0F5F9A42000F0F2F9FF
:10332000A62000F0EFF98D2000F0ECF9142000F059
:10333000E9F9AF2000F0E6F9FFF7F2FE00F0B6F988
:1033400010BD0FB470B5C2B005460E4614464AA86B
:10335000019002A8019A4999FCF78CFF0020019086
:10336000234602AA3146284600F0BEF842B070BC9F
:103370005DF814FB70B505460C4645F0B00000F052
:10338000C1F9102141EA141000F0BCF904F00F005B
:1033900000F0B8F970BD0000F8B506460F461446B7
:1033A0001D46082D0CD1A4F120000E4901EB0010A0
:1033B0001023082239460090304600F017F80FE03D
:1033C000062D0DD1A4F1200000EB4000064901EBD1
:1033D00040000823062239460090304600F006F8E7
:1033E000F8BD00006C6600085C6C00082DE9FF4F1A
:1033F00080460E469146DDF834B0002500244A464A
:1034000031464046039BFFF79FFE00BF5EE000256C
:1034100058E008EB0500002852DB08EB05007F2888
:103420004EDC3046F11706EB5171C9100FB2F1179F
:1034300006EB5171C910A6EBC10A002E05DA781E01
:1034400007B20AF108000FFA80FA3819002817DBD2
:103450003819072814DC3819224901EBC01008EB91
:103460000501405C04FB09511BF8011001FA0AF147
:10347000084339191B4A02EBC11108EB05028854B5
:103480003819401C00281BDB3819401C072817DCA2
:103490003819401C134901EBC01008EB0501405CD2
:1034A00004FB09511BF80110CAF10802114108433D
:1034B0003919491C0B4A02EBC11108EB050288546B
:1034C000681CC5B24D45A4DB601CC4B20399481EFC
:1034D000C11700EB5171012202EBE101A14296DC20
:1034E000BDE8FF8F140100202DE9FE4F07468A46F4
:1034F000144698460025AB460026CBE0605D00F000
:10350000800058B94FF0010B2846691C8DB2205C31
:103510008DF8040000208DF805006BE0605D00F080
:10352000E000C02814D14FF0020B2846691C8DB270
:10353000205C8DF80400605D00B9AFE02846691C8E
:103540008DB2205C8DF8050000208DF8060051E05A
:10355000605D00F0F000E0281DD14FF0030B28461D
:10356000691C8DB2205C8DF80400605D00B995E0A7
:103570002846691C8DB2205C8DF80500605D00B99D
:103580008CE02846691C8DB2205C8DF80600002076
:103590008DF807002EE0605D00F0F800F02826D1DD
:1035A0004FF0040B2846691C8DB2205C8DF8040096
:1035B000605D00B972E02846691C8DB2205C8DF810
:1035C0000500605D00B969E02846691C8DB2205C89
:1035D0008DF80600605D00B960E02846691C8DB278
:1035E000205C8DF8070000208DF8080002E0681CC0
:1035F00085B24FE0BBF1010F0BD19DF80420B91942
:1036000008B243465146FFF7C7FE06EB080086B2F4
:103610003FE04FF000090EE009EB890101EB491191
:10362000204A881801A9FCF74BFE00B90EE009F109
:1036300001001FFA80F909EB890101EB4911194AD0
:10364000881819A1FCF73CFE0028E5D100BFB8F1AD
:10365000080F12D109EB890000EB49101149084409
:10366000401DB919009008B210231A465146FFF7C1
:10367000BDFE06F1100086B20BE0B8F1060F08D1CE
:10368000B91908B206233F225146FFF785FEB01D47
:1036900086B200BF605D00287FF430AF00BFBDE898
:1036A000FE8F0000966E00080000000010B5002498
:1036B0000BE000212046FFF75DFE054901EBC41039
:1036C000802100F02FF8601CC4B2082CF1DB10BD83
:1036D0001401002010B5044622464FF480710248C0
:1036E000FFF780FA10BD0000000C014010B5044641
:1036F00022464FF400710248FFF774FA10BD000033
:10370000000C014010B50446FFF7B5FD7820FFF727
:1037100093FD0020FFF790FD2046FFF78DFDFFF79A
:10372000B8FD10BD70B505460E46FFF7A4FD782024
:10373000FFF782FD4020FFF77FFD002404E0285DB5
:10374000FFF77AFD601CC4B2B442F8DBFFF7A1FDBD
:1037500070BD0021016041608160C160C161016292
:10376000416270472DE9F0410446E0692062D4E9E6
:10377000000102F081FEE0610021606902F0FAFCC4
:1037800013D0E169606A02F087FC6062E16A606AF6
:1037900002F040FE01D2E06A6062D4E9090102F061
:1037A00039FD04D2A06A606201E000206062D4E9C1
:1037B000010102F061FE0746A16902F05FFD0546C6
:1037C000616A606902F05AFD0746E169206902F00A
:1037D00055FD8046394602F05FFC0646294602F058
:1037E0004BFEE0600021E06802F014FE04D2A16B01
:1037F000E06802F051FCE0600021E06802F00AFDA0
:1038000004D2A16BE06802F037FEE060216BE06853
:1038100002F000FE01D2206BE060616BE06802F014
:10382000F9FC01D2606BE0606068A060BDE8F081E7
:1038300000B589B00121084600F05AF801210420A2
:1038400000F066F818208DF823000320ADF8200062
:103850008DF8220008A91C48FFF72CF94FF0804092
:1038600000F096FD0020ADF81A00ADF816006320B8
:10387000ADF818002320ADF8140000208DF81C00CE
:1038800005A94FF0804000F063FE01A800F024FE7F
:103890006020ADF804000020ADF80C000120ADF868
:1038A00006000020ADF80A0001A94FF0804000F0AA
:1038B00075FD01A94FF0804000F0BCFD0121880793
:1038C00000F0BCFC09B000BD0008014010B5044682
:1038D00021464FF0804000F009FE10BD10B50446AF
:1038E00021464FF0804000F003FE10BD70470000FD
:1038F00029B1064AD2690243044BDA6104E0034A63
:10390000D2698243014BDA61704700000010024027
:1039100029B1064A92690243044B9A6104E0034AC2
:1039200092698243014B9A61704700000010024087
:1039300030B500210022002400232D4D6D6805F0D4
:103940000C0121B1042905D0082923D105E0294D16
:10395000056022E0274D05601FE0254D6D6805F4E8
:103960007012234D6D6805F48034022505EB9242F8
:103970001CB9214D554305600BE01D4D6D6805F4E4
:1039800000351DB11C4D5543056002E0194D5543EE
:10399000056002E0174D056000BF00BF144D6D6863
:1039A00005F0F0010909154D6B5C0568DD404560C7
:1039B0000F4D6D6805F4E061090A104D6B5C4568B8
:1039C000DD4085600A4D6D6805F46051C90A0B4DF4
:1039D0006B5C4568DD40C560054D6D6805F4404190
:1039E000890B074D6B5CC568B5FBF3F5056130BD10
:1039F0000010024000127A0000093D000000002083
:103A0000100000207047000000B587B00121880336
:103A1000FFF77EFF01210420FFF77AFF18208DF8C1
:103A20001B004FF40070ADF8180003208DF81A0049
:103A300006A92148FFF73EF848208DF81B004FF4F7
:103A40008060ADF8180003208DF81A0006A91A4806
:103A5000FFF730F84FF4165002900020ADF8140034
:103A60000C20ADF812000020ADF81000ADF80E00EB
:103A7000ADF80C0002A9114800F0D4FE012240F27A
:103A800025510E4800F0A8FE4FF4A060FFF73EFB62
:103A900025208DF8040001208DF807008DF8050021
:103AA0008DF8060001A8FFF7F9FA0121034800F09C
:103AB00050FE07B000BD0000000801400038014082
:103AC00010B500F001F810BD0CB500200190009079
:103AD0003348006840F480303149086000BF304806
:103AE000006800F4003000900198401C019000989C
:103AF00018B90198B0F5A06FF1D12948006800F419
:103B0000003010B10120009001E0002000900098EA
:103B1000012843D12348006840F010002149086083
:103B20000846006820F0030008600846006840F07E
:103B3000020008601A484068194948600846406811
:103B400048600846406840F4806048600846406825
:103B500020F47C1048600846406840F4E810486053
:103B60000846006840F08070086000BF0C4800689C
:103B700000F000700028F9D00948406820F00300E8
:103B8000074948600846406840F00200486000BFAE
:103B90000348406800F00C000828F9D10CBD000073
:103BA00000100240002002407047000010B513488A
:103BB000006840F00100114908600846406810495B
:103BC00008400E494860084600680E4908400B4905
:103BD00008600846006820F48020086008464068B5
:103BE00020F4FE0048604FF41F008860FFF768FF74
:103BF0004FF000600449086010BD00000010024052
:103C00000000FFF8FFFFF6FE08ED00E0F0B50C46FF
:103C1000154600220021068C4FF6FE773E400684B2
:103C2000028B018C4FF60C7632407E1C06EA03169E
:103C30002E433243104EB0420ED0104EB0420BD045
:103C4000B0F1804F08D00E4EB04205D00D4EB042BC
:103C500002D00D4EB04206D14FF6FD76314044F011
:103C60000106314305E04FF6F576314044F0010698
:103C7000314302830184F0BD002C01400034014037
:103C80000004004000080040000C0040F0B50C4665
:103C90001546002200210026078C4FF6EF7C07EA2C
:103CA0000C070784028B018C4FF6FF7707EA041696
:103CB00040F6FF473A404FF6FF7707EA03373A43AB
:103CC0004FF6FF7707EA05273A43114FB8420ED067
:103CD000104FB8420BD0B0F1804F08D00E4FB84211
:103CE00005D00E4FB84202D00D4FB84206D14FF664
:103CF000DF77394046F01007394305E04FF65F772C
:103D0000394044F01007394302830184F0BD0000BC
:103D1000002C014000340140000400400008004035
:103D2000000C0040F0B50C4615460022002100268C
:103D3000078C4FF6FF6C07EA0C070784828B018C17
:103D40004FF6FF7707EA04264FF60C773A404FF616
:103D5000FF7707EA03172F433A43114FB8420ED0BB
:103D6000104FB8420BD0B0F1804F08D00E4FB84280
:103D700005D00E4FB84202D00D4FB84206D14FF6D3
:103D8000FF57394046F48077394305E04FF2FF573B
:103D9000394044F48077394382830184F0BD0000C8
:103DA000002C0140003401400004004000080040A5
:103DB000000C0040F0B50C461546002200210026FC
:103DC000078C4EF6FF7C07EA0C070784828B018C78
:103DD0004FF6FF7707EA043640F6FF473A404FF6C2
:103DE000FF7707EA05273A434FF6FF7707EA0337DD
:103DF0003A43114FB8420ED0104FB8420BD0B0F139
:103E0000804F08D00E4FB84205D00E4FB84202D0B6
:103E10000D4FB84206D14DF6FF77394046F4805732
:103E2000394305E047F6FF57394044F4805739439A
:103E300082830184F0BD0000002C01400034014069
:103E40000004004000080040000C00402DE9F04F45
:103E500085B00121CD4800F021FA01287DD1012152
:103E6000CA4800F0E8F9FEF719FFC9480088401C6D
:103E7000C7490880084600880A286FDB00200880B0
:103E8000C448C549C54BC64ACDE90010C549C64816
:103E9000FEF75AFFC04800882D3800B2BE4908809E
:103EA000BF48B0F9000001F04DFE80468946BE488B
:103EB000B0F9000001F046FE064642464B4600F0CF
:103EC0002DFF81F000410446B84AB94B01F0A6FC31
:103ED0000022B84BCDE9020101F088FE824601F0D4
:103EE000AFFBB54908600846006802F0A9F806462D
:103EF000B24AB34B01F0BAFF044601F0A1FBAE4950
:103F00000860A548B0F9000001F01CFE80460022C0
:103F1000AC4B01F083FC0022AB4BCDE9000101F07A
:103F200065FE0646A94AAA4B01F060FE04460D460E
:103F3000A848006802F084F822462B46CDE9020129
:103F400001F0B0FB824601F07BFBA3490860A34867
:103F500004904FF07E50049901E014E18BE002F0F0
:103F60008BFA06469C480168304602F087F9044601
:103F700091480499006802F081F90546214602F053
:103F80008BF89449086096499248006802F042FA1A
:103F900005D394498F48006802F03CF902D2002012
:103FA000914908709048007800285BD089480068E3
:103FB0008E4948600846FFF7D5FB8C48C06880F002
:103FC0000044204602F00AF900B289490880894974
:103FD000B1F9000000EBD071854A128802EB610153
:103FE00009B2854A11808349B1F9000000EBD07114
:103FF0007F4A1288A2EB610109B2804A11807E4893
:10400000B0F90000642803DD64207B49088009E0E2
:104010007948B0F9000010F1640F03DA6FF0630023
:10402000754908807548B0F90000642803DD6420F4
:104030007249088009E07148B0F9000010F1640F7E
:1040400003DA6FF063006D4908806B48007841B275
:104050000120FEF737FF6948007841B20220FEF7E1
:1040600031FF07E000210120FEF72CFF0021022094
:10407000FEF728FF00BF62480088401C60490880A6
:104080000846008832286DDB002008800120FEF7FA
:1040900055FC049001F056FD82460022594B01F078
:1040A000BDFB0646454A584B01F0B8FB804600224E
:1040B000564B01F0B3FB044601F0C2FA54490860C4
:1040C0000220FEF73BFC049001F03CFD80460022FC
:1040D0004C4B01F0A3FB0646384A4B4B01F09EFBCC
:1040E00082460022494B01F099FB044601F0A8FAF0
:1040F00048490860084601684548006801F0CCFF5F
:10410000804601F09DFF064600224FF0804301F0FB
:1041100085FB044601F094FA3F4908603D48016878
:104120003B48006802F0A8F93C4908602E48007836
:10413000C0B1394800683A4948600846FFF712FBA9
:104140003748C068294908603448006835494860E4
:104150000846FFF707FB3349C86802F03FF800B292
:10416000244908800121094800F098F8012805D168
:104170002D4908700121054800F05DF8034800F062
:104180008AF82A49088005B0BDE8F08F002C01406C
:104190000C0100202A00002028000020260000201A
:1041A0002400002022000020200000206E861BF04A
:1041B000F921094000806640340000209A999999BD
:1041C000999901400000E04000409F407B14AE47B9
:1041D000E17A843F3C000020380000200AD7233CCD
:1041E00000004842000048C2310000205800002072
:1041F0004400002046000020400000204200002033
:104200000E010020000046409999A93F000033406C
:10421000480000204C0000205000002054000020E6
:1042200094000020D00000202C0000202E00002050
:10423000CA4302827047CA430282704721B1028892
:1042400042F00102028004E002884FF6FE731A4039
:1042500002807047F0B50C4615461E46002100222C
:1042600000230189028B038C4FF6F87739402143F4
:104270004FF6FC473A4040F201173A434FF6DD77DC
:104280003B404FF6FF7707EA06172F433B43018178
:1042900002830384F0BD0146888C704730B5024626
:1042A000002000230024158A05EA0103958905EA08
:1042B000010413B10CB1012000E0002030BD00006A
:1042C00070B505460C46244885420ED023488542E9
:1042D0000BD0B5F1804F08D02148854205D0214848
:1042E000854202D02048854200D100E000BF2088EE
:1042F00050B92389A28861882846FFF787FCE188A6
:10430000284600F0F9F825E0208804280AD12389FE
:10431000A28861882846FFF7B9FCE188284600F0AA
:10432000F4F817E0208808280AD12389A288618838
:104330002846FFF7F7FCE188284600F0F3F809E08B
:104340002389A28861882846FFF734FDE188284642
:1043500000F0F1F870BD0000002C01400034014075
:104360000004004000080040000C004000210180D3
:104370004180012181800021C180018170471AB1F3
:1043800083890B43838102E083898B438381704758
:1043900001894FF6F87211400181704770B5002411
:1043A00000220023058C4FF6FE7635400584028CF2
:1043B0008388048B4FF68F752C40B51E2C400D88DA
:1043C0002C43751E2A400D892A434D882A43144DDB
:1043D000A8420BD0134DA84208D0134DA84205D0D7
:1043E000124DA84202D0124DA84213D14FF6F775D4
:1043F0002A404D892A434FF6FB752A408D882A436F
:104400004FF6FF652B404FF6FF552B408D892B4310
:10441000CD892B4383800483CD888586028470BD3B
:10442000002C0140003401400040014000440140A4
:104430000048014070B5002400220023058C4FF68F
:10444000EF7635400584028C8388048B48F6FF752F
:104450002C404FF6FF452C400D884FF6FF7606EABC
:1044600005252C434FF6DF752A400D8906EA051510
:104470002A434D8806EA05152A43154DA84202D065
:10448000144DA8421DD14FF67F752A404D894FF635
:10449000FF7606EA05152A434FF6BF752A408D8838
:1044A00006EA05152A434FF6FF352B404FF2FF75FC
:1044B0002B408D8906EA85052B43CD8906EA8505C3
:1044C0002B4383800483CD880587028470BD000060
:1044D000002C014000340140002101804180818096
:1044E000C180018141818181C1817047818670478E
:1044F0000187704781847047028B4FF6F3731A402F
:104500000283028B0A4302837047028B4FF2FF3310
:104510001A400283028B4FF6FF7303EA01231A430A
:1045200002837047828B4FF6F3731A408283828B2B
:104530000A4382837047828B4FF2FF331A40828393
:10454000828B4FF6FF7303EA01231A43828370477D
:10455000002202881D4B98420ED01D4B98420BD072
:10456000B0F1804F08D01B4B984205D01A4B9842AF
:1045700002D01A4B984204D14FF68F731A404B88E1
:104580001A43174B984207D0164B984204D04FF667
:10459000FF431A40CB881A4302808B8883850B889F
:1045A00003850A4B98420BD0094B984208D00E4B1A
:1045B000984205D00D4B984202D00D4B984201D144
:1045C0000B7A03860123838270470000002C014090
:1045D000003401400004004000080040000C00408E
:1045E0000010004000140040004001400044014021
:1045F000004801401FB50121C802FFF789F91B4897
:10460000FFF7C6FE0020ADF80A00ADF8060040F244
:10461000E730ADF808004720ADF8040000208DF821
:104620000C0001A91148FFF793FF01210F48FFF784
:10463000FFFD012211460D48FFF7A1FE4FF4A060D7
:10464000FEF764FD19208DF8000001208DF80300AD
:1046500002208DF8010001208DF802006846FEF767
:104660001DFD01210148FFF7E9FD1FBD002C0140A0
:1046700010B540F22551094800F084F801280CD10A
:10468000064800F03BF9064908700120054908700A
:1046900040F22551014800F04DF810BD00380140AE
:1046A000180000201900002010B540F225511C48C8
:1046B00000F068F8012832D1194800F01FF9C4B29F
:1046C0001848007858B95B2C23D11748007800BBF4
:1046D00001201449087000201449087019E011489D
:1046E0000078012815D15D2C0AD100200D490870F1
:1046F0000F490E4A1278885401200B49087008E0CF
:104700000B480A490978445408480078401C074976
:10471000087040F22551024800F00CF800BF10BDAF
:10472000004400401B0000201A0000201C00002054
:104730001405002010B50022002340F66A14A1429F
:1047400000D100BF0A1201249440A3B2DC430480CC
:1047500010BD21B1828942F40052828104E0828935
:104760004DF6FF731A408281704702460020B1F572
:10477000007F00D100BF13880B400BB1012000E087
:104780000020704770B50246002400230025002059
:1047900040F66A16B14200D100BFC1F3421501F0E4
:1047A0001F03012606FA03F3012D02D19689334037
:1047B00006E0022D02D1168A334001E0968A33408A
:1047C0000C12012606FA04F41688344013B10CB119
:1047D000012000E0002070BDF0B503460024002653
:1047E0000025002040F66A17B94200D100BF1846E4
:1047F000C1F3421401F01F06012707FA06F5012C48
:1048000001D10C3004E0022C01D1103000E0143052
:104810001AB107682F43076002E00768AF430760DB
:10482000F0BD00002DE9F04786B005460E46002495
:10483000A24600BFA1460027B08900B100BF2F46A5
:104840002C8A4CF6FF700440F08804432C82AC891B
:104850004EF6F3100440B08831890843718908434B
:104860000443AC81AC8A4FF6FF400440B089044356
:10487000AC8201A8FFF75CF81F48874202D1DDF83F
:1048800010A001E0DDF80CA0A88900F4004040B1C0
:104890000AEBCA0000EB0A1031684900B0FBF1F8DE
:1048A00007E00AEBCA0000EB0A1031688900B0FB90
:1048B000F1F86420B8FBF0F004012009642101FB49
:1048C0001089A88900F4004040B1322000EBC900F3
:1048D000B0FBF1F000F00700044308E0322000EBE9
:1048E00009106421B0FBF1F000F00F0004432C81AB
:1048F00006B0BDE8F0870000003801400146888816
:10490000C0F308007047C1F308028280704700BFFF
:10491000FEE7490050EAC12018BF04204A0D18BF25
:1049200040F0010040F2FF72B2EB515F08BF40F06F
:104930000200012808BF052070472DE9F0414F1EF5
:1049400000EBC7010446D1E9000115461E4637F0C9
:1049500006020DD02A46334601F048F97F1E04EBCB
:10496000C703D3E9002300F09DFE37F00602F1D122
:10497000022F25D0042F13D0062F18BFBDE8F081D9
:104980002A46334601F032F9D4E90A2300F08AFEC0
:104990002A46334601F02AF9D4E9082300F082FEC2
:1049A0002A46334601F022F9D4E9062300F07AFEC4
:1049B0002A46334601F01AF9D4E9042300F072FEC6
:1049C0002A46334601F012F9D4E9022300F06AFEC8
:1049D0002A46334601F00AF9D4E90023BDE8F04144
:1049E00000F060BE012201F0F5BD00F05BBE40F2B8
:1049F000013200204FF0E04101F0ECBD024A0020FE
:104A0000110701F0E7BD000001FDFFFF10B50446EE
:104A1000D1E9000100F002F8206010BDF8B50446AD
:104A20000D466A4600F050FA00987E30009000284B
:104A30001EDC002213462046294601F047F817D015
:104A4000002140F608004FF00000064620462946A7
:104A500000F0F6FD044640F6080006EA00014FF0BB
:104A6000000034F0004004BF0220FBF776FC29E090
:104A70000098FF2828DB002108464FF0000000F4D2
:104A80004006002213462046294601F0ADF98CBFAE
:104A9000002501250220FBF760FC4FF0FF4446B1E2
:104AA000002D0CBF4FF400004FF48000B04218BF3F
:104AB000084C042108464FF00000002D04BF84F08C
:104AC0000040F8BD2046F8BD20462946BDE8F84024
:104AD00000F0B6BDFFFF7F7F10B504460A46D4E95B
:104AE0000003194600F01CFAC4E9000110BD30387B
:104AF0000A2801D201207047002070472DE9F84FA5
:104B000004460D4621F0004000917349814211DCBA
:104B10007249884201DC06D12CB120462946BDE805
:104B2000F84FFFF75FBF6E48002DCCBF6D496E494F
:104B3000BDE8F88F6D49814211DD6D498142D8BFD2
:104B40004FF0FF366DDD20462946FFF7E2FE0428D0
:104B500008BFFFF753FF20462946BDE8F88F654997
:104B6000654F25F00045814233DD6449814219DDFE
:104B7000002632464FF080432046294600F092FD41
:104B800080468A4601222046294601F023FD002264
:104B90003B4601F06BF94246534600F03FFE0446A7
:104BA0000D463EE001260022BA463B4620462946F5
:104BB00000F078FD80460F460022534620462946E5
:104BC00001F054F942463B4600F028FE04460D46EB
:104BD00027E04B4981421BDDDFF828A10226002295
:104BE00053462046294601F001F800223B4600F0DA
:104BF00059FD80460F46002253462046294601F0C3
:104C000035F942463B4600F009FE04460D4608E0F1
:104C1000032622462B4600203B4900F0FFFD0446B8
:104C20000D4622462B461046194600F0DFFF8B4604
:104C3000824602460B4600F0D9FF0746024633483B
:104C400088460B4606217844FFF777FE52465B46BE
:104C500000F0CCFF82462E488B463A46434605215B
:104C60007844FFF76AFE3A46434600F0BFFF02462B
:104C70000B46002E504659460CDA00F013FD224632
:104C80002B4600F0B3FF01B022462B46BDE8F04FA3
:104C900001F0E0B800F006FD22462B4600F0A6FF2A
:104CA0001C4A7A4402EBC603D3E9002301F0DEF884
:104CB00022462B4601F0DAF8174A7A4402EBC60383
:104CC000D3E9002301F0C6F8009A002AB8BF81F0AA
:104CD0000041BDE8F88F0000000010440000F07FA4
:104CE000182D4454FB21F93FFB21F9BF0000DC3FA4
:104CF0000000203E0000F33F0000F03F0000E63FD0
:104D0000008003400000F83F0000F0BF1E240000B8
:104D1000DC2300007A230000422300002DE9F04D3F
:104D20009446CCF1000423F000464CEA0404524FB0
:104D300046EAD4749A46884621F00042BC4206D81E
:104D4000454240EA050442EAD474BC4204D9BDE8B5
:104D5000F04D6246FFF749BEAAF14055A5F17F65C7
:104D600055EA0C040BD0022404EAAA74434DDFF880
:104D700010E144EAD87452EA000B04D00CE0BDE81C
:104D8000F04DFFF7BBBE002C14BF012CBDE8F08D29
:104D9000022C30D0032C32D056EA0C0B0AD0BE4283
:104DA00020D1BA4209D126F0804622F08042334613
:104DB000114617E000291ADB25E0DFF8C8B0FB44F4
:104DC000002C04BFDBE90001BDE8F08D012C02BF1F
:104DD000DBE9000181F00041BDE8F08D022C0AD032
:104DE000032C0CD0BA4212D1B8F1000F0BDA2348D1
:104DF0002549BDE8F08D28462449BDE8F08D2846B8
:104E00007146BDE8F08D1D482149BDE8F08D921B2B
:104E100012153C2AC4BF19481D490EDCBAF1000F17
:104E2000BEBF12F13C0F0020014606DB624600F0D7
:104E3000F5FC21F00041FFF761FE002C08BFBDE842
:104E4000F08D012C04BF81F00041BDE8F08D114AC6
:104E5000114B022C07D001F009F82A46BDE8F04DAD
:104E60000A4B01F003B801F001F82A46BDE8F04D05
:104E7000064B00F0EFBF00000000F07F182D4454F7
:104E8000FB2109C0D6220000FB21F9BFFB2109400C
:104E9000FB21F93F075C143326A6A13C30B583B053
:104EA0000446FBF755FA05460020CDE9000002460E
:104EB00021466846FBF728FD2846FBF74EFADDE958
:104EC000000103B030BD000010B51446002222607E
:104ED000114A21F000439342A8BF10BD53EA0002DB
:104EE00008BF10BDB3F5801FA8BF226807DA3622BD
:104EF00001F070FB6FF0350221F000432260DFF813
:104F00001CC06FF31E510CEB23531A4441F0FF51A8
:104F100041F00051226010BD0000F07F02FCFFFF55
:104F20002DE9F04106460C4640F2FF75174635EA7A
:104F300014502BD000221346304600F0C7FD25D078
:104F40003A463046214601F045FB06460C4635EA16
:104F5000145010D000221346304600F0B7FD15D192
:104F60000220FBF7FAF9FFF749FD0A46214662F3F2
:104F70001E01BDE8F0810220FBF7EFF9FFF737FDD6
:104F80000A46214662F31E01BDE8F0813046214603
:104F9000BDE8F0811FB5FEF787F9FDF716FFFDF7B5
:104FA00041FCFDF7A3FEFDF757FEFDF773FFFEF78B
:104FB0002BFDFDF7E3FCFFF71DFBFCE2FC4800784E
:104FC00010B1FDF7B7FE01E0FDF7AAFEFDF712FEF6
:104FD00040B2F849087008460078012813D1F44817
:104FE000007801280CD1F448FEF7B3FBF348FEF734
:104FF000B0FBF348FEF7ADFB0020ED49087002E07E
:105000000120EB490870FEF78BF8EEA30622002181
:105010000846FEF796F9E849086901F011F8EBA394
:105020000622CDE9000108210020FEF78AF9E249B5
:10503000486901F005F8E8A30622CDE90001102136
:105040000020FEF77EF9DC49886900F0F9FFE5A34E
:105050000622CDE9000118210020FEF772F9D64999
:10506000086800F0EDFFE2A30622CDE9000120214F
:105070000020FEF766F9E148006800F0E1FFE0A3D8
:105080000622CDE9000128210020FEF75AF9CA497D
:10509000C86800F0D5FFDDA30622CDE9000130216C
:1050A0000020FEF74EF9DC48B0F90000DBA3062231
:1050B000382100900020FEF744F9BF49886B00F0CA
:1050C000BFFFD9A30622CDE9000138210846FEF72B
:1050D00038F9D9A3062200213220FEF732F9B74968
:1050E000086900F0ADFFD6A30622CDE90001082132
:1050F0003220FEF726F9B149486900F0A1FFD0A39C
:105100000622CDE9000110213220FEF71AF9AB4941
:10511000886900F095FFCAA30622CDE90001182195
:105120003220FEF70EF9A549086800F089FFC6A3F2
:105130000622CDE9000120213220FEF702F9C44801
:10514000006800F07DFFC0A30622CDE90001282100
:105150003220FEF7F6F89949C86800F071FFBAA34B
:105160000622CDE9000130213220FEF7EAF8B9A38A
:10517000062200215820FEF7E4F89149086900F062
:105180005FFFAFA30622CDE9000108215820FEF7FA
:10519000D8F88B49486900F053FFA9A30622CDE94E
:1051A000000110215820FEF7CCF88549886900F0ED
:1051B00047FFA3A30622CDE9000118215820FEF7DE
:1051C000C0F87F49086800F03BFF9FA30622CDE9A5
:1051D000000120215820FEF7B4F8A048006800F034
:1051E0002FFF99A30622CDE9000128215820FEF7C0
:1051F000A8F87349C86800F023FF93A30622CDE9FD
:10520000000130215820FEF79CF8FEF74FFA944831
:105210000078012876D193A19348FBF74BF80390CF
:1052200092A10398FBF74CF828BB8EA10020FBF756
:1052300041F804468BA10020FBF73CF805468CA101
:105240002046FBF73DF840B98AA12846FBF738F81D
:1052500018B90120564908700CE088A12046FBF7D8
:105260002FF838B986A12846FBF72AF810B9002094
:105270004F49087081E184A10398FBF721F80028C9
:1052800079D178A1FBF716F8064676A10020FBF746
:1052900011F807467EA13046FBF712F840B93846B0
:1052A000FFF7FCFD044600F0CBF9434908617EE0BE
:1052B00079A13046FBF704F840B93846FFF7EEFD18
:1052C000044600F0BDF93C49486170E074A13046E5
:1052D000FAF7F6FF40B93846FFF7E0FD044600F064
:1052E000AFF93549886162E06FA13046FAF7E8FF0F
:1052F00048B93846FFF7D2FD044600F0A1F92F491E
:10530000086154E03DE16AA13046FAF7D9FF40B99F
:105310003846FFF7C3FD044600F092F9274948617B
:1053200045E065A13046FAF7CBFF40B93846FFF7B4
:10533000B5FD044600F084F92049886137E060A19A
:105340003046FAF7BDFF40B93846FFF7A7FD0446DF
:1053500000F076F91A49086129E05BA13046FAF7B6
:10536000AFFF48B93846FFF799FD044600F068F9E9
:10537000134948611BE0B7E055A13046FAF7A0FF9A
:1053800040B93846FFF78AFD044600F059F90C4948
:1053900088610CE050A13046FAF792FF38B93846E0
:1053A000FFF77CFD044600F04BF903498863E4E015
:1053B0003100002030000020580000209400002020
:1053C000D00000202020416E676C6500503A2530E7
:1053D000352E326600000000493A2530352E3266FF
:1053E00000000000443A2530352E326600000000EF
:1053F000543A2530352E3166000000003C00002074
:10540000413A2530352E3166000000004F3A2530F4
:10541000352E3166000000002800002047593A254B
:105420002B303664000000004F66667365743A25C1
:1054300030322E3066000000202053706565640015
:105440002530352E326600002530352E31660000BD
:105450005000002020205475726E0000540000207F
:105460001A0000202C000000140500206B65790054
:10547000310000007374617274000000320000009B
:105480007368757400000000736C696465720000D5
:10549000416E676C654B7000416E676C654B6900CF
:1054A000416E676C654B640053706565644B7000BA
:1054B00053706565644B690053706565644B6400A7
:1054C0005475726E4B7000005475726E4B6900001B
:1054D0005475726E4B640000416E676C654F757455
:1054E0004F6666736574000033A10398FAF7E8FE0F
:1054F000E8BBAFF290010020FAF7DCFE0546FAF7B0
:10550000CBFE4FFA80FAAFF2A4010020FAF7D2FEE8
:105510000546FAF7C1FE44B2AFF2B8010020FAF72F
:10552000C9FE0546FAF7B8FE4FFA80F9AFF2CC0192
:105530000020FAF7BFFE0546FAF7AEFE4FFA80FBF1
:10554000204600F0FFFA074600221E4B00F066F9E5
:10555000054600F075F81C490860484600F0F2FA6C
:1055600007460022174B00F059F9054600E004E019
:1055700000F066F81549086000BF00201449087063
:1055800000BF1249486A00F05BFD04460D460E4913
:10559000486A00F055FD06460F460E49486A00F07D
:1055A0004FFD804642460B460BA0CDE90067CDE992
:1055B0000245FDF791F901E56A6F79737469636BD0
:1055C000000000000000394094000020D0000020BE
:1055D0001A000020580000205B706C6F742C256648
:1055E0002C25662C25665D0010B500290AD00878A8
:1055F000002807D005487844FAF762FE002801D059
:10560000002010BD0248784410BD0000961B000029
:105610008E1B000010B500290AD00878002807D09A
:1056200005487844FAF74CFE002801D0002010BD50
:105630000248784410BD0000861B00007E1B00005D
:1056400021F00042A2F16052B2F5801F01F0004348
:1056500028BFD2F17F6C0BD95FEA001C43EAC2027B
:1056600042EB507018BF704728BF20F00100704710
:10567000B2F5801FBCBF184670474FEA410C1CF5BD
:10568000001F02D2084600F0C0BE70B500F058FB03
:1056900000000089FFF7F6BF4FF00040A0F5800042
:1056A0007047000010B591EA030F48BF83F0004334
:1056B00000F1E483841A71EB030C05D2121943EB59
:1056C0000C03001B61EB0C01DFF824E14FEA1154DD
:1056D000A4EB135C1EEA430F18BF9EEA445F73D02D
:1056E00023EA0E03DCF1200E21EA045143F4801377
:1056F00032D322FA0CFE10EB0E0023FA0CFE41EB23
:105700000E01CCF1200E03FA0EFE10EB0E0051F14B
:105710000001B1F5801FCCF1200E32D201EB045113
:1057200012FA0EF2BDE8104058BF7047401C38BF57
:105730005FEA420218BF7047002814BF20F0010042
:1057400041F100014FEA410313F5001F38BF7047D4
:10575000A1F1C04100F042BB012A43EB0302ACF1CE
:10576000200CDCF11F0E32BF4FF0000E23FA0CF3B9
:1057700010EB030041EB0451B4EB115FD0D0A1EB6F
:10578000045101F5801149085FEA300001EB045132
:105790000ED350F1000038BF12FA0EFE08D1BDE85A
:1057A0001040C9E7401C38BF5FEA4202CAD1C3E7D4
:1057B000BDE810404FEA410313F5001F38BF7047A2
:1057C000A1F1C04100F00ABB9EEA445F08D011EA93
:1057D0005E0FBDE8104004BF01F00041002070479B
:1057E000BDE8104070B500F0ABFA00BF64FBBE3EF0
:1057F0000000E0FF02494FF0000000F0B9BE00BF1A
:105800000000F87F491058BFC1F140415B1058BFFC
:10581000C3F140438B42EFF3008070472DE9C04154
:1058200030B4DFF8A0C23CEA111418BF3CEA1314EC
:1058300000F0EC8081EA03051CEA111444EAD574F7
:1058400018BF1CEA131500F0C780A4EB05044FF045
:10585000004545EAC12145EAC32341EA505143EAE4
:10586000525304F17F74994204F500344FEAC0208A
:105870004FEAC22208BF904200F09C804FEA1365B5
:105880000FF24016765D4FEA134506FB05F7C7F1A8
:10589000807706FB07F74FEAD737A7FB0368764206
:1058A000C8F58038A7FB06CE38BFA8F1010807FB72
:1058B00008E64FF0000EA6FB028CE6FB03CEDCF1FF
:1058C000000CCEF1004E38BFAEF1010EA6FB0C5815
:1058D0004FF000074FF00005E6FB0E87A1FB08C65E
:1058E000A0FB07CE16EB0E0645F10005E1FB0765B0
:1058F00015F1E04E7EBFA4F580345FEA46066D41A7
:1059000016F1800745F100054FEA17274FEA0666B2
:1059100047EA0567A6F1DE46B6F1805F4FEA152536
:105920001FD9384624F0010C05EBC471BCF1FE6FA1
:1059300001EB0C1102D8F0BCBDE8008124425CBF31
:1059400001F5801E9EEAC47F02D4F0BCBDE8008150
:10595000244238D4F0BCA1F1C041BDE8004100F0C0
:105960003DBA4FEAD22242EA43524FEAD323A7FB81
:1059700002864FEAD02040EA415007FB03661EEA48
:105980000E0F4FEAD12105FB026658BFA6EB005669
:10599000B6EB00564FEA520E4EEAC37E18EB0E0EDF
:1059A00056EB530EBDD518EB02085E417F1C55F136
:1059B0000005B6E74FF480154FF000074FF00006E2
:1059C0004FF00008ADE7F0BC4FF0000001F1C0411E
:1059D00001F00041BDE8008111EA0C1F0CEA13152B
:1059E00000D00CE013EA0C1F00F025804FF00000FF
:1059F000F0BC81EA030101F00041BDE80081F0BC88
:105A0000BDE8004181EA030100F0E8B9F0BCBDE85F
:105A1000004170B500F094F9097EFC3E00F007B833
:105A200081EA03014FF0000001F00041704781EA74
:105A3000030100F0D3B9F0BCBDE800414FF0000015
:105A400021497047FFFDFBF9F7F5F4F2F0EEEDEBBD
:105A5000E9E8E6E4E3E1E0DEDDDBDAD8D7D5D4D36C
:105A6000D1D0CFCDCCCBCAC8C7C6C5C4C2C1C0BFB8
:105A7000BEBDBCBBBAB9B8B7B6B5B4B3B2B1B0AFBE
:105A8000AEADACABAAA9A8A8A7A6A5A4A3A3A2A1A2
:105A9000A09F9F9E9D9C9C9B9A999998979796955D
:105AA00095949393929191908F8F8E8E8D8C8C8BF9
:105AB0008B8A898988888787868585848483838281
:105AC000828181800000FF070000F87F51EA030C0B
:105AD00017D41CF5801F58BFBCF5801F00F106804D
